{
    "_format": "hh-sol-artifact-1",
    "contractName": "BethelInvoice",
    "sourceName": "contracts/BethelInvoice.sol",
    "abi": [
        {
            "inputs": [
                {
                    "internalType": "address",
                    "name": "tokenAddress",
                    "type": "address"
                }
            ],
            "stateMutability": "nonpayable",
            "type": "constructor"
        },
        {
            "anonymous": false,
            "inputs": [
                {
                    "indexed": true,
                    "internalType": "address",
                    "name": "creator",
                    "type": "address"
                },
                {
                    "indexed": false,
                    "internalType": "uint256",
                    "name": "invoiceNo",
                    "type": "uint256"
                },
                {
                    "indexed": false,
                    "internalType": "bool",
                    "name": "created",
                    "type": "bool"
                }
            ],
            "name": "InvoiceCreated",
            "type": "event"
        },
        {
            "anonymous": false,
            "inputs": [
                {
                    "indexed": true,
                    "internalType": "address",
                    "name": "buyer",
                    "type": "address"
                },
                {
                    "indexed": false,
                    "internalType": "uint256",
                    "name": "amount",
                    "type": "uint256"
                },
                {
                    "indexed": false,
                    "internalType": "enum BethelInvoice.Packages",
                    "name": "package",
                    "type": "uint8"
                },
                {
                    "indexed": false,
                    "internalType": "bool",
                    "name": "paid",
                    "type": "bool"
                }
            ],
            "name": "StoragePurchased",
            "type": "event"
        },
        {
            "inputs": [],
            "name": "bethtoken",
            "outputs": [
                {
                    "internalType": "contract BethToken",
                    "name": "",
                    "type": "address"
                }
            ],
            "stateMutability": "view",
            "type": "function"
        },
        {
            "inputs": [
                {
                    "internalType": "string",
                    "name": "_did",
                    "type": "string"
                },
                {
                    "internalType": "enum BethelInvoice.Packages",
                    "name": "_package",
                    "type": "uint8"
                }
            ],
            "name": "createInvoice",
            "outputs": [
                {
                    "internalType": "bool",
                    "name": "success",
                    "type": "bool"
                }
            ],
            "stateMutability": "nonpayable",
            "type": "function"
        },
        {
            "inputs": [
                {
                    "internalType": "string",
                    "name": "_did",
                    "type": "string"
                },
                {
                    "internalType": "enum BethelInvoice.Packages",
                    "name": "_package",
                    "type": "uint8"
                }
            ],
            "name": "payInvoice",
            "outputs": [
                {
                    "internalType": "bool",
                    "name": "success",
                    "type": "bool"
                }
            ],
            "stateMutability": "nonpayable",
            "type": "function"
        },
        {
            "inputs": [
                {
                    "internalType": "string",
                    "name": "",
                    "type": "string"
                },
                {
                    "internalType": "uint256",
                    "name": "",
                    "type": "uint256"
                }
            ],
            "name": "price",
            "outputs": [
                {
                    "internalType": "uint256",
                    "name": "",
                    "type": "uint256"
                }
            ],
            "stateMutability": "view",
            "type": "function"
        },
        {
            "inputs": [
                {
                    "internalType": "string",
                    "name": "",
                    "type": "string"
                }
            ],
            "name": "users",
            "outputs": [
                {
                    "internalType": "string",
                    "name": "did",
                    "type": "string"
                },
                {
                    "internalType": "address",
                    "name": "owner",
                    "type": "address"
                }
            ],
            "stateMutability": "view",
            "type": "function"
        }
    ],
    "bytecode": "0x60806040523480156200001157600080fd5b5060405162001eab38038062001eab8339818101604052810190620000379190620000e8565b806000806101000a81548173ffffffffffffffffffffffffffffffffffffffff021916908373ffffffffffffffffffffffffffffffffffffffff160217905550506200011a565b600080fd5b600073ffffffffffffffffffffffffffffffffffffffff82169050919050565b6000620000b08262000083565b9050919050565b620000c281620000a3565b8114620000ce57600080fd5b50565b600081519050620000e281620000b7565b92915050565b6000602082840312156200010157620001006200007e565b5b60006200011184828501620000d1565b91505092915050565b611d81806200012a6000396000f3fe608060405234801561001057600080fd5b50600436106100575760003560e01c806303b507211461005c57806318707faa1461008c57806319b989a0146100bc5780631a505813146100ec578063689e1c031461010a575b600080fd5b610076600480360381019061007191906113b0565b61013b565b6040516100839190611427565b60405180910390f35b6100a660048036038101906100a191906113b0565b6103ef565b6040516100b39190611427565b60405180910390f35b6100d660048036038101906100d19190611478565b610a48565b6040516100e391906114e3565b60405180910390f35b6100f4610a83565b604051610101919061157d565b60405180910390f35b610124600480360381019061011f9190611598565b610aa7565b604051610132929190611681565b60405180910390f35b60008061014783610b89565b9050600060018560405161015b91906116ed565b9081526020016040518091039020600201805480602002602001604051908101604052809291908181526020016000905b828210156103255783829060005260206000209060080201604051806101000160405290816000820180546101c090611733565b80601f01602080910402602001604051908101604052809291908181526020018280546101ec90611733565b80156102395780601f1061020e57610100808354040283529160200191610239565b820191906000526020600020905b81548152906001019060200180831161021c57829003601f168201915b505050505081526020016001820160009054906101000a900473ffffffffffffffffffffffffffffffffffffffff1673ffffffffffffffffffffffffffffffffffffffff1673ffffffffffffffffffffffffffffffffffffffff168152602001600282015481526020016003820160009054906101000a900460ff1660038111156102c7576102c6611764565b5b60038111156102d9576102d8611764565b5b81526020016004820154815260200160058201548152602001600682015481526020016007820160009054906101000a900460ff1615151515815250508152602001906001019061018c565b5050505090506000816001835161033c91906117c2565b8151811061034d5761034c6117f6565b5b602002602001015190508260028760405161036891906116ed565b9081526020016040518091039020600083604001518152602001908152602001600020819055503373ffffffffffffffffffffffffffffffffffffffff167f50a4e7b09a7702856f1575b470a4545493787deb31f8b61162746f7af1b5d7ef848760016040516103da9392919061186d565b60405180910390a26001935050505092915050565b600080835111610434576040517f08c379a000000000000000000000000000000000000000000000000000000000815260040161042b906118f0565b60405180910390fd5b600061043f83610b89565b9050600060018560405161045391906116ed565b908152602001604051809103902060405180606001604052908160008201805461047c90611733565b80601f01602080910402602001604051908101604052809291908181526020018280546104a890611733565b80156104f55780601f106104ca576101008083540402835291602001916104f5565b820191906000526020600020905b8154815290600101906020018083116104d857829003601f168201915b505050505081526020016001820160009054906101000a900473ffffffffffffffffffffffffffffffffffffffff1673ffffffffffffffffffffffffffffffffffffffff1673ffffffffffffffffffffffffffffffffffffffff16815260200160028201805480602002602001604051908101604052809291908181526020016000905b828210156107125783829060005260206000209060080201604051806101000160405290816000820180546105ad90611733565b80601f01602080910402602001604051908101604052809291908181526020018280546105d990611733565b80156106265780601f106105fb57610100808354040283529160200191610626565b820191906000526020600020905b81548152906001019060200180831161060957829003601f168201915b505050505081526020016001820160009054906101000a900473ffffffffffffffffffffffffffffffffffffffff1673ffffffffffffffffffffffffffffffffffffffff1673ffffffffffffffffffffffffffffffffffffffff168152602001600282015481526020016003820160009054906101000a900460ff1660038111156106b4576106b3611764565b5b60038111156106c6576106c5611764565b5b81526020016004820154815260200160058201548152602001600682015481526020016007820160009054906101000a900460ff16151515158152505081526020019060010190610579565b505050508152505090506000816040015151111561073b57610735858584610c9e565b50610a3c565b60006040518061010001604052808781526020013373ffffffffffffffffffffffffffffffffffffffff1681526020016001815260200186600381111561078557610784611764565b5b815260200184815260200142815260200162278d00426107a59190611910565b815260200160011515815250905060006001876040516107c591906116ed565b90815260200160405180910390209050868160000190816107e69190611ae6565b50338160010160006101000a81548173ffffffffffffffffffffffffffffffffffffffff021916908373ffffffffffffffffffffffffffffffffffffffff16021790555080600201829080600181540180825580915050600190039060005260206000209060080201600090919091909150600082015181600001908161086d9190611ae6565b5060208201518160010160006101000a81548173ffffffffffffffffffffffffffffffffffffffff021916908373ffffffffffffffffffffffffffffffffffffffff1602179055506040820151816002015560608201518160030160006101000a81548160ff021916908360038111156108ea576108e9611764565b5b02179055506080820151816004015560a0820151816005015560c0820151816006015560e08201518160070160006101000a81548160ff02191690831515021790555050508060018860405161094091906116ed565b9081526020016040518091039020600082018160000190816109629190611bce565b506001820160009054906101000a900473ffffffffffffffffffffffffffffffffffffffff168160010160006101000a81548173ffffffffffffffffffffffffffffffffffffffff021916908373ffffffffffffffffffffffffffffffffffffffff16021790555060028201816002019080546109e0929190610fd8565b509050503373ffffffffffffffffffffffffffffffffffffffff167fa8f552dbb90a3a954688079706f8d2dbdc06417abb4a920588bb4849c0c1b06183604001516001604051610a31929190611cb6565b60405180910390a250505b60019250505092915050565b600282805160208101820180518482526020830160208501208183528095505050505050602052806000526040600020600091509150505481565b60008054906101000a900473ffffffffffffffffffffffffffffffffffffffff1681565b600181805160208101820180518482526020830160208501208183528095505050505050600091509050806000018054610ae090611733565b80601f0160208091040260200160405190810160405280929190818152602001828054610b0c90611733565b8015610b595780601f10610b2e57610100808354040283529160200191610b59565b820191906000526020600020905b815481529060010190602001808311610b3c57829003601f168201915b5050505050908060010160009054906101000a900473ffffffffffffffffffffffffffffffffffffffff16905082565b6000806003811115610b9e57610b9d611764565b5b826003811115610bb157610bb0611764565b5b03610bbf5760649050610c99565b60016003811115610bd357610bd2611764565b5b826003811115610be657610be5611764565b5b03610bf45760c89050610c99565b60026003811115610c0857610c07611764565b5b826003811115610c1b57610c1a611764565b5b03610c2a5761012c9050610c99565b600380811115610c3d57610c3c611764565b5b826003811115610c5057610c4f611764565b5b03610c5e5760329050610c99565b6040517f08c379a0000000000000000000000000000000000000000000000000000000008152600401610c9090611d2b565b60405180910390fd5b919050565b6000806040518061010001604052808681526020013373ffffffffffffffffffffffffffffffffffffffff16815260200160018088604051610ce091906116ed565b908152602001604051809103902060020180549050610cff9190611910565b8152602001856003811115610d1757610d16611764565b5b815260200184815260200142815260200162278d0042610d379190611910565b81526020016001151581525090506000600186604051610d5791906116ed565b9081526020016040518091039020905085816000019081610d789190611ae6565b50338160010160006101000a81548173ffffffffffffffffffffffffffffffffffffffff021916908373ffffffffffffffffffffffffffffffffffffffff160217905550806002018290806001815401808255809150506001900390600052602060002090600802016000909190919091506000820151816000019081610dff9190611ae6565b5060208201518160010160006101000a81548173ffffffffffffffffffffffffffffffffffffffff021916908373ffffffffffffffffffffffffffffffffffffffff1602179055506040820151816002015560608201518160030160006101000a81548160ff02191690836003811115610e7c57610e7b611764565b5b02179055506080820151816004015560a0820151816005015560c0820151816006015560e08201518160070160006101000a81548160ff021916908315150217905550505080600187604051610ed291906116ed565b908152602001604051809103902060008201816000019081610ef49190611bce565b506001820160009054906101000a900473ffffffffffffffffffffffffffffffffffffffff168160010160006101000a81548173ffffffffffffffffffffffffffffffffffffffff021916908373ffffffffffffffffffffffffffffffffffffffff1602179055506002820181600201908054610f72929190610fd8565b509050503373ffffffffffffffffffffffffffffffffffffffff167fa8f552dbb90a3a954688079706f8d2dbdc06417abb4a920588bb4849c0c1b06183604001516001604051610fc3929190611cb6565b60405180910390a26001925050509392505050565b82805482825590600052602060002090600802810192821561112d5760005260206000209160080282015b8281111561112c578282600082018160000190816110219190611bce565b506001820160009054906101000a900473ffffffffffffffffffffffffffffffffffffffff168160010160006101000a81548173ffffffffffffffffffffffffffffffffffffffff021916908373ffffffffffffffffffffffffffffffffffffffff160217905550600282015481600201556003820160009054906101000a900460ff168160030160006101000a81548160ff021916908360038111156110cb576110ca611764565b5b02179055506004820154816004015560058201548160050155600682015481600601556007820160009054906101000a900460ff168160070160006101000a81548160ff021916908315150217905550505091600801919060080190611003565b5b50905061113a919061113e565b5090565b5b808211156111d0576000808201600061115891906111d4565b6001820160006101000a81549073ffffffffffffffffffffffffffffffffffffffff021916905560028201600090556003820160006101000a81549060ff02191690556004820160009055600582016000905560068201600090556007820160006101000a81549060ff02191690555060080161113f565b5090565b5080546111e090611733565b6000825580601f106111f25750611211565b601f0160209004906000526020600020908101906112109190611214565b5b50565b5b8082111561122d576000816000905550600101611215565b5090565b6000604051905090565b600080fd5b600080fd5b600080fd5b600080fd5b6000601f19601f8301169050919050565b7f4e487b7100000000000000000000000000000000000000000000000000000000600052604160045260246000fd5b6112988261124f565b810181811067ffffffffffffffff821117156112b7576112b6611260565b5b80604052505050565b60006112ca611231565b90506112d6828261128f565b919050565b600067ffffffffffffffff8211156112f6576112f5611260565b5b6112ff8261124f565b9050602081019050919050565b82818337600083830152505050565b600061132e611329846112db565b6112c0565b90508281526020810184848401111561134a5761134961124a565b5b61135584828561130c565b509392505050565b600082601f83011261137257611371611245565b5b813561138284826020860161131b565b91505092915050565b6004811061139857600080fd5b50565b6000813590506113aa8161138b565b92915050565b600080604083850312156113c7576113c661123b565b5b600083013567ffffffffffffffff8111156113e5576113e4611240565b5b6113f18582860161135d565b92505060206114028582860161139b565b9150509250929050565b60008115159050919050565b6114218161140c565b82525050565b600060208201905061143c6000830184611418565b92915050565b6000819050919050565b61145581611442565b811461146057600080fd5b50565b6000813590506114728161144c565b92915050565b6000806040838503121561148f5761148e61123b565b5b600083013567ffffffffffffffff8111156114ad576114ac611240565b5b6114b98582860161135d565b92505060206114ca85828601611463565b9150509250929050565b6114dd81611442565b82525050565b60006020820190506114f860008301846114d4565b92915050565b600073ffffffffffffffffffffffffffffffffffffffff82169050919050565b6000819050919050565b600061154361153e611539846114fe565b61151e565b6114fe565b9050919050565b600061155582611528565b9050919050565b60006115678261154a565b9050919050565b6115778161155c565b82525050565b6000602082019050611592600083018461156e565b92915050565b6000602082840312156115ae576115ad61123b565b5b600082013567ffffffffffffffff8111156115cc576115cb611240565b5b6115d88482850161135d565b91505092915050565b600081519050919050565b600082825260208201905092915050565b60005b8381101561161b578082015181840152602081019050611600565b60008484015250505050565b6000611632826115e1565b61163c81856115ec565b935061164c8185602086016115fd565b6116558161124f565b840191505092915050565b600061166b826114fe565b9050919050565b61167b81611660565b82525050565b6000604082019050818103600083015261169b8185611627565b90506116aa6020830184611672565b9392505050565b600081905092915050565b60006116c7826115e1565b6116d181856116b1565b93506116e18185602086016115fd565b80840191505092915050565b60006116f982846116bc565b915081905092915050565b7f4e487b7100000000000000000000000000000000000000000000000000000000600052602260045260246000fd5b6000600282049050600182168061174b57607f821691505b60208210810361175e5761175d611704565b5b50919050565b7f4e487b7100000000000000000000000000000000000000000000000000000000600052602160045260246000fd5b7f4e487b7100000000000000000000000000000000000000000000000000000000600052601160045260246000fd5b60006117cd82611442565b91506117d883611442565b92508282039050818111156117f0576117ef611793565b5b92915050565b7f4e487b7100000000000000000000000000000000000000000000000000000000600052603260045260246000fd5b6004811061183657611835611764565b5b50565b600081905061184782611825565b919050565b600061185782611839565b9050919050565b6118678161184c565b82525050565b600060608201905061188260008301866114d4565b61188f602083018561185e565b61189c6040830184611418565b949350505050565b7f5573657220444944206973207265717569726564000000000000000000000000600082015250565b60006118da6014836115ec565b91506118e5826118a4565b602082019050919050565b60006020820190508181036000830152611909816118cd565b9050919050565b600061191b82611442565b915061192683611442565b925082820190508082111561193e5761193d611793565b5b92915050565b60008190508160005260206000209050919050565b60006020601f8301049050919050565b600082821b905092915050565b6000600883026119a67fffffffffffffffffffffffffffffffffffffffffffffffffffffffffffffffff82611969565b6119b08683611969565b95508019841693508086168417925050509392505050565b60006119e36119de6119d984611442565b61151e565b611442565b9050919050565b6000819050919050565b6119fd836119c8565b611a11611a09826119ea565b848454611976565b825550505050565b600090565b611a26611a19565b611a318184846119f4565b505050565b5b81811015611a5557611a4a600082611a1e565b600181019050611a37565b5050565b601f821115611a9a57611a6b81611944565b611a7484611959565b81016020851015611a83578190505b611a97611a8f85611959565b830182611a36565b50505b505050565b600082821c905092915050565b6000611abd60001984600802611a9f565b1980831691505092915050565b6000611ad68383611aac565b9150826002028217905092915050565b611aef826115e1565b67ffffffffffffffff811115611b0857611b07611260565b5b611b128254611733565b611b1d828285611a59565b600060209050601f831160018114611b505760008415611b3e578287015190505b611b488582611aca565b865550611bb0565b601f198416611b5e86611944565b60005b82811015611b8657848901518255600182019150602085019450602081019050611b61565b86831015611ba35784890151611b9f601f891682611aac565b8355505b6001600288020188555050505b505050505050565b600081549050611bc781611733565b9050919050565b818103611bdc575050611cb4565b611be582611bb8565b67ffffffffffffffff811115611bfe57611bfd611260565b5b611c088254611733565b611c13828285611a59565b6000601f831160018114611c425760008415611c30578287015490505b611c3a8582611aca565b865550611cad565b601f198416611c5087611944565b9650611c5b86611944565b60005b82811015611c8357848901548255600182019150600185019450602081019050611c5e565b86831015611ca05784890154611c9c601f891682611aac565b8355505b6001600288020188555050505b5050505050505b565b6000604082019050611ccb60008301856114d4565b611cd86020830184611418565b9392505050565b7f496e76616c6964207061636b6167650000000000000000000000000000000000600082015250565b6000611d15600f836115ec565b9150611d2082611cdf565b602082019050919050565b60006020820190508181036000830152611d4481611d08565b905091905056fea2646970667358221220a69dbf9874562ceed5936f2960e14f0fed1492027f31123c815982c99b27965864736f6c63430008140033",
    "linkReferences": {},
    "deployedLinkReferences": {}
}